{
  "contractName": "petShop",
  "abi": [
    {
      "constant": false,
      "inputs": [],
      "name": "buyArticle",
      "outputs": [],
      "payable": true,
      "stateMutability": "payable",
      "type": "function"
    },
    {
      "constant": true,
      "inputs": [],
      "name": "getArticle",
      "outputs": [
        {
          "name": "_seller",
          "type": "address"
        },
        {
          "name": "_buyer",
          "type": "address"
        },
        {
          "name": "_name",
          "type": "string"
        },
        {
          "name": "_description",
          "type": "string"
        },
        {
          "name": "_price",
          "type": "uint256"
        }
      ],
      "payable": false,
      "stateMutability": "view",
      "type": "function"
    },
    {
      "constant": false,
      "inputs": [
        {
          "name": "_name",
          "type": "string"
        },
        {
          "name": "_description",
          "type": "string"
        },
        {
          "name": "_price",
          "type": "uint256"
        }
      ],
      "name": "sellArticle",
      "outputs": [],
      "payable": false,
      "stateMutability": "nonpayable",
      "type": "function"
    },
    {
      "anonymous": false,
      "inputs": [
        {
          "indexed": true,
          "name": "_seller",
          "type": "address"
        },
        {
          "indexed": false,
          "name": "_name",
          "type": "string"
        },
        {
          "indexed": false,
          "name": "_price",
          "type": "uint256"
        }
      ],
      "name": "sellArticleEvent",
      "type": "event"
    },
    {
      "anonymous": false,
      "inputs": [
        {
          "indexed": true,
          "name": "_seller",
          "type": "address"
        },
        {
          "indexed": true,
          "name": "_buyer",
          "type": "address"
        },
        {
          "indexed": false,
          "name": "_name",
          "type": "string"
        },
        {
          "indexed": false,
          "name": "_price",
          "type": "uint256"
        }
      ],
      "name": "buyArticleEvent",
      "type": "event"
    }
  ],
  "bytecode": "0x6060604052341561000f57600080fd5b6109078061001e6000396000f300606060405260043610610057576000357c0100000000000000000000000000000000000000000000000000000000900463ffffffff168063a005db411461005c578063c37218a614610066578063d2609515146101cd575b600080fd5b610064610276565b005b341561007157600080fd5b610079610502565b604051808673ffffffffffffffffffffffffffffffffffffffff1673ffffffffffffffffffffffffffffffffffffffff1681526020018573ffffffffffffffffffffffffffffffffffffffff1673ffffffffffffffffffffffffffffffffffffffff1681526020018060200180602001848152602001838103835286818151815260200191508051906020019080838360005b8381101561012757808201518184015260208101905061010c565b50505050905090810190601f1680156101545780820380516001836020036101000a031916815260200191505b50838103825285818151815260200191508051906020019080838360005b8381101561018d578082015181840152602081019050610172565b50505050905090810190601f1680156101ba5780820380516001836020036101000a031916815260200191505b5097505050505050505060405180910390f35b34156101d857600080fd5b610274600480803590602001908201803590602001908080601f0160208091040260200160405190810160405280939291908181526020018383808284378201915050505050509190803590602001908201803590602001908080601f016020809104026020016040519081016040528093929190818152602001838380828437820191505050505050919080359060200190919050506106ac565b005b6000600160009054906101000a900473ffffffffffffffffffffffffffffffffffffffff1673ffffffffffffffffffffffffffffffffffffffff161415156102bd57600080fd5b6000809054906101000a900473ffffffffffffffffffffffffffffffffffffffff1673ffffffffffffffffffffffffffffffffffffffff163373ffffffffffffffffffffffffffffffffffffffff161415151561031957600080fd5b6004543414151561032957600080fd5b33600160006101000a81548173ffffffffffffffffffffffffffffffffffffffff021916908373ffffffffffffffffffffffffffffffffffffffff1602179055506000809054906101000a900473ffffffffffffffffffffffffffffffffffffffff1673ffffffffffffffffffffffffffffffffffffffff166108fc349081150290604051600060405180830381858888f1935050505015156103cb57600080fd5b600160009054906101000a900473ffffffffffffffffffffffffffffffffffffffff1673ffffffffffffffffffffffffffffffffffffffff166000809054906101000a900473ffffffffffffffffffffffffffffffffffffffff1673ffffffffffffffffffffffffffffffffffffffff167f38beb681bc0237671d2b0a9516f45454a940d09dbb12bdf89fb60ece0dc23178600260045460405180806020018381526020018281038252848181546001816001161561010002031660029004815260200191508054600181600116156101000203166002900480156104f15780601f106104c6576101008083540402835291602001916104f1565b820191906000526020600020905b8154815290600101906020018083116104d457829003601f168201915b5050935050505060405180910390a3565b60008061050d610822565b610515610822565b60008060009054906101000a900473ffffffffffffffffffffffffffffffffffffffff16600160009054906101000a900473ffffffffffffffffffffffffffffffffffffffff1660026003600454828054600181600116156101000203166002900480601f0160208091040260200160405190810160405280929190818152602001828054600181600116156101000203166002900480156105f85780601f106105cd576101008083540402835291602001916105f8565b820191906000526020600020905b8154815290600101906020018083116105db57829003601f168201915b50505050509250818054600181600116156101000203166002900480601f0160208091040260200160405190810160405280929190818152602001828054600181600116156101000203166002900480156106945780601f1061066957610100808354040283529160200191610694565b820191906000526020600020905b81548152906001019060200180831161067757829003601f168201915b50505050509150945094509450945094509091929394565b336000806101000a81548173ffffffffffffffffffffffffffffffffffffffff021916908373ffffffffffffffffffffffffffffffffffffffff1602179055508260029080519060200190610702929190610836565b508160039080519060200190610719929190610836565b50806004819055506000809054906101000a900473ffffffffffffffffffffffffffffffffffffffff1673ffffffffffffffffffffffffffffffffffffffff167f229ecd5f3a912d97d6c520c3ce09b3c5df244541e239b7a3c24d18c06505bcb96002600454604051808060200183815260200182810382528481815460018160011615610100020316600290048152602001915080546001816001161561010002031660029004801561080e5780601f106107e35761010080835404028352916020019161080e565b820191906000526020600020905b8154815290600101906020018083116107f157829003601f168201915b5050935050505060405180910390a2505050565b602060405190810160405280600081525090565b828054600181600116156101000203166002900490600052602060002090601f016020900481019282601f1061087757805160ff19168380011785556108a5565b828001600101855582156108a5579182015b828111156108a4578251825591602001919060010190610889565b5b5090506108b291906108b6565b5090565b6108d891905b808211156108d45760008160009055506001016108bc565b5090565b905600a165627a7a72305820abc430cb396254ba772663eefcdcfe76a20edb1116cb037f69ab5260e40c52f70029",
  "source": "pragma solidity ^0.4.11;\n\ncontract petShop {\n\n    // State variables of the articles\n    address seller;\n\n    //at the begining is 0 and then this will change when the purchase\n    //is confirmed\n    address buyer;\n\n    string name;\n    string description;\n    uint256 price;\n\n    /*\n    // constructor -> create a default article\n    function petShop() {\n        sellArticle(\"Default article\", \"This an article set by default\", 1000000000000000000);\n    }\n    */\n\n    //events\n    event sellArticleEvent(\n      //lets add indexed (like an índice) which means that we are going\n      //to watch only events specific to them\n      address indexed _seller,\n\n      string _name,\n      uint256 _price\n    );\n\n    //event to notify when the purchase has happened\n    event buyArticleEvent (\n      //lets add indexed (like an índice) which means that we are going\n      //to watch only events specific to them\n      address indexed _seller,\n      address indexed _buyer,\n\n      string _name,\n      uint256 _price\n    );\n\n    // sell an article. This will change the state of the contract so it whas a cost.\n    function sellArticle(string _name, string _description, uint256 _price) public {\n        seller = msg.sender;\n        name = _name;\n        description = _description;\n        price = _price;\n        sellArticleEvent(seller, name, price);\n    }\n\n    // get the article. Calling this function will be free.\n    function getArticle() public constant returns (\n        address _seller,\n        address _buyer,\n        string _name,\n        string _description,\n        uint256 _price) {\n        return(seller, buyer, name, description, price);\n    }\n\n    // buy an article\n    //lets put a payable function which means that\n    //it may recieve value in the form of ether from its caller\n    //if you dont declare variables as payable, you cannot send value\n    //to it\n    function buyArticle() payable public {\n\n      // in every require function if doesnt comply,\n      // it interrupt the execution of the function and refund\n      // to the sender.\n\n      // there are several ways to interrupt a contract function,\n      // and those are (throw, assert, require, revert) all\n      // do the same, whatever value was sent with the\n      // transaction is refunded to the caller, all changes are\n      // automatically reverted, when a function execution is\n      // interrupted no more gas after this point will be spent,\n      // all the gas spent by the message sender up to the point\n      // when the function is interrupted is not refunded to the\n      // message sender. The basically rollback a transaction.\n\n      // any smart contract has its own balance just like\n      // any other account. There are two types of accounts\n      // 1 external accounts which have a keeper and can be used\n      // by a human users.\n      // 2 contract accounts which are linked to deploy contracts\n      // when you attach money to a transaction calling a payable\n      // function on a contract, you are transferring cryptocurrency\n      // from the  balance of your account to the balance of the\n      // contract and then any code of the contract, can spend value\n      // from its balance by sending or transferring it to another\n      // account or it can keep it for later.\n\n\n      // we check that the article was not already sold\n      require(buyer == 0x0);\n\n      //we don't allow the seller to buy its own article\n      require(msg.sender != seller);\n\n      //we check whether the value sent corresponds to the article price\n      require(msg.value == price);\n\n\n      // if everything is ok\n      // keep buyer's information (sender as the buyer)\n      buyer = msg.sender;\n\n      // the buyer can buy the article\n      //we send money to the seller\n      //this value comes from the value of the contract\n      seller.transfer(msg.value);\n\n      // trigger the event\n      buyArticleEvent(seller, buyer, name, price);\n    }\n\n}\n",
  "sourcePath": "/root/ChainSkills/Training/pet-shop/contracts/petShop.sol",
  "compiler": {
    "name": "solc",
    "version": "0.4.18+commit.9cf6e910.Emscripten.clang"
  },
  "schemaVersion": "1.0.1",
  "updatedAt": "2018-01-28T18:36:23.676Z"
}