{
  "contractName": "petShop",
  "abi": [
    {
      "constant": false,
      "inputs": [
        {
          "name": "_id",
          "type": "uint256"
        }
      ],
      "name": "buyArticle",
      "outputs": [],
      "payable": true,
      "stateMutability": "payable",
      "type": "function"
    },
    {
      "constant": true,
      "inputs": [],
      "name": "getArticlesForSale",
      "outputs": [
        {
          "name": "",
          "type": "uint256[]"
        }
      ],
      "payable": false,
      "stateMutability": "view",
      "type": "function"
    },
    {
      "constant": true,
      "inputs": [],
      "name": "getNumberOfArticles",
      "outputs": [
        {
          "name": "",
          "type": "uint256"
        }
      ],
      "payable": false,
      "stateMutability": "view",
      "type": "function"
    },
    {
      "constant": false,
      "inputs": [
        {
          "name": "_name",
          "type": "string"
        },
        {
          "name": "_description",
          "type": "string"
        },
        {
          "name": "_price",
          "type": "uint256"
        }
      ],
      "name": "sellArticle",
      "outputs": [],
      "payable": false,
      "stateMutability": "nonpayable",
      "type": "function"
    },
    {
      "constant": true,
      "inputs": [
        {
          "name": "",
          "type": "uint256"
        }
      ],
      "name": "articles",
      "outputs": [
        {
          "name": "id",
          "type": "uint256"
        },
        {
          "name": "seller",
          "type": "address"
        },
        {
          "name": "buyer",
          "type": "address"
        },
        {
          "name": "name",
          "type": "string"
        },
        {
          "name": "description",
          "type": "string"
        },
        {
          "name": "price",
          "type": "uint256"
        }
      ],
      "payable": false,
      "stateMutability": "view",
      "type": "function"
    },
    {
      "anonymous": false,
      "inputs": [
        {
          "indexed": true,
          "name": "_id",
          "type": "uint256"
        },
        {
          "indexed": true,
          "name": "_seller",
          "type": "address"
        },
        {
          "indexed": false,
          "name": "_name",
          "type": "string"
        },
        {
          "indexed": false,
          "name": "_price",
          "type": "uint256"
        }
      ],
      "name": "sellArticleEvent",
      "type": "event"
    },
    {
      "anonymous": false,
      "inputs": [
        {
          "indexed": true,
          "name": "_id",
          "type": "uint256"
        },
        {
          "indexed": true,
          "name": "_seller",
          "type": "address"
        },
        {
          "indexed": true,
          "name": "_buyer",
          "type": "address"
        },
        {
          "indexed": false,
          "name": "_name",
          "type": "string"
        },
        {
          "indexed": false,
          "name": "_price",
          "type": "uint256"
        }
      ],
      "name": "buyArticleEvent",
      "type": "event"
    }
  ],
  "bytecode": "0x6060604052341561000f57600080fd5b610b6b8061001e6000396000f30060606040526004361061006d576000357c0100000000000000000000000000000000000000000000000000000000900463ffffffff1680631cc4baa8146100725780637f6be3da1461008a57806389da85d3146100f4578063d26095151461011d578063edcfafe6146101c6575b600080fd5b610088600480803590602001909190505061037c565b005b341561009557600080fd5b61009d610663565b6040518080602001828103825283818151815260200191508051906020019060200280838360005b838110156100e05780820151818401526020810190506100c5565b505050509050019250505060405180910390f35b34156100ff57600080fd5b6101076107dd565b6040518082815260200191505060405180910390f35b341561012857600080fd5b6101c4600480803590602001908201803590602001908080601f0160208091040260200160405190810160405280939291908181526020018383808284378201915050505050509190803590602001908201803590602001908080601f016020809104026020016040519081016040528093929190818152602001838380828437820191505050505050919080359060200190919050506107e7565b005b34156101d157600080fd5b6101e76004808035906020019091905050610a0c565b604051808781526020018673ffffffffffffffffffffffffffffffffffffffff1673ffffffffffffffffffffffffffffffffffffffff1681526020018573ffffffffffffffffffffffffffffffffffffffff1673ffffffffffffffffffffffffffffffffffffffff16815260200180602001806020018481526020018381038352868181546001816001161561010002031660029004815260200191508054600181600116156101000203166002900480156102e45780601f106102b9576101008083540402835291602001916102e4565b820191906000526020600020905b8154815290600101906020018083116102c757829003601f168201915b50508381038252858181546001816001161561010002031660029004815260200191508054600181600116156101000203166002900480156103675780601f1061033c57610100808354040283529160200191610367565b820191906000526020600020905b81548152906001019060200180831161034a57829003601f168201915b50509850505050505050505060405180910390f35b60008060015411151561038e57600080fd5b6000821180156103a057506001548211155b15156103ab57600080fd5b600080838152602001908152602001600020905060008160020160009054906101000a900473ffffffffffffffffffffffffffffffffffffffff1673ffffffffffffffffffffffffffffffffffffffff1614151561040857600080fd5b3373ffffffffffffffffffffffffffffffffffffffff168160010160009054906101000a900473ffffffffffffffffffffffffffffffffffffffff1673ffffffffffffffffffffffffffffffffffffffff161415151561046757600080fd5b34816005015414151561047957600080fd5b338160020160006101000a81548173ffffffffffffffffffffffffffffffffffffffff021916908373ffffffffffffffffffffffffffffffffffffffff1602179055508060010160009054906101000a900473ffffffffffffffffffffffffffffffffffffffff1673ffffffffffffffffffffffffffffffffffffffff166108fc349081150290604051600060405180830381858888f19350505050151561052057600080fd5b8060020160009054906101000a900473ffffffffffffffffffffffffffffffffffffffff1673ffffffffffffffffffffffffffffffffffffffff168160010160009054906101000a900473ffffffffffffffffffffffffffffffffffffffff1673ffffffffffffffffffffffffffffffffffffffff16837f1022115f3a730bbc8daef9a08e80544240a1578ecba51270e55ab8e72d626e7284600301856005015460405180806020018381526020018281038252848181546001816001161561010002031660029004815260200191508054600181600116156101000203166002900480156106505780601f1061062557610100808354040283529160200191610650565b820191906000526020600020905b81548152906001019060200180831161063357829003601f168201915b5050935050505060405180910390a45050565b61066b610a86565b610673610a86565b60008061067e610a86565b60008060015411151561069057600080fd5b6001546040518059106106a05750595b9080825280602002602001820160405250945060009350600192505b6001548311151561076357600080600085815260200190815260200160002060020160009054906101000a900473ffffffffffffffffffffffffffffffffffffffff1673ffffffffffffffffffffffffffffffffffffffff1614156107565760008084815260200190815260200160002060000154858581518110151561073f57fe5b906020019060200201818152505083806001019450505b82806001019350506106bc565b836040518059106107715750595b90808252806020026020018201604052509150600090505b838110156107d257848181518110151561079f57fe5b9060200190602002015182828151811015156107b757fe5b90602001906020020181815250508080600101915050610789565b819550505050505090565b6000600154905090565b60016000815480929190600101919050555060c06040519081016040528060015481526020013373ffffffffffffffffffffffffffffffffffffffff168152602001600073ffffffffffffffffffffffffffffffffffffffff1681526020018481526020018381526020018281525060008060015481526020019081526020016000206000820151816000015560208201518160010160006101000a81548173ffffffffffffffffffffffffffffffffffffffff021916908373ffffffffffffffffffffffffffffffffffffffff16021790555060408201518160020160006101000a81548173ffffffffffffffffffffffffffffffffffffffff021916908373ffffffffffffffffffffffffffffffffffffffff160217905550606082015181600301908051906020019061091e929190610a9a565b50608082015181600401908051906020019061093b929190610a9a565b5060a082015181600501559050503373ffffffffffffffffffffffffffffffffffffffff166001547fe6dcabaf37bca305551877dc9bc2cb6019fbb7859c0f74c037077d948fb17c5685846040518080602001838152602001828103825284818151815260200191508051906020019080838360005b838110156109cc5780820151818401526020810190506109b1565b50505050905090810190601f1680156109f95780820380516001836020036101000a031916815260200191505b50935050505060405180910390a3505050565b60006020528060005260406000206000915090508060000154908060010160009054906101000a900473ffffffffffffffffffffffffffffffffffffffff16908060020160009054906101000a900473ffffffffffffffffffffffffffffffffffffffff1690806003019080600401908060050154905086565b602060405190810160405280600081525090565b828054600181600116156101000203166002900490600052602060002090601f016020900481019282601f10610adb57805160ff1916838001178555610b09565b82800160010185558215610b09579182015b82811115610b08578251825591602001919060010190610aed565b5b509050610b169190610b1a565b5090565b610b3c91905b80821115610b38576000816000905550600101610b20565b5090565b905600a165627a7a723058200f517f8897d3a07387f7bf9971ab5c1caa46cdb54669f097b1c8e018ff5f87d20029",
  "source": "pragma solidity ^0.4.11;\n\ncontract petShop {\n\n    //lets physically group a set of variables,\n    //belonging to the same concept.\n    //this is not going to store anything in the\n    //contract state until we instantiate of this type\n    //and store it in the state.\n    struct Article {\n\n      uint id;\n      // State variables of the articles\n      address seller;\n\n      //at the begining is 0 and then this will change when the purchase\n      //is confirmed\n      address buyer;\n\n      string name;\n      string description;\n      uint256 price;\n\n    }\n\n    /*\n    mappings are associative arrays whose values are set to zero for all possible\n    keys by default, but values can be any data type including custom structure\n    types. Mappings cannot be interated over, because they are not stored as\n    such in the contract state. Theres no way to know the size of the\n    mapping or to determine if a ket exists or not. the only thing we can do\n    is changing the value asociated to a key or retrieving the value\n    asociated to a known key.\n    */\n\n    //this will generate a list of articles identified by their own id.\n    //so we can access to an article trough their id.\n    //we have declare a public articles with that the compiler is goign to\n    //generate automatically a getter method which is going to\n    //return the values of the article but not generate setter's functions.\n    mapping(uint => Article) public articles;\n    //this variable is going to help us keep track of the mapping\n    //to know how many articles we have.\n    uint articleCounter;\n\n    /*\n    These simple Variables are going to be replaced by the struct types.\n    // State variables of the articles\n    address seller;\n    //at the begining is 0 and then this will change when the purchase\n    //is confirmed\n    address buyer;\n    string name;\n    string description;\n    uint256 price;\n    */\n\n    /*\n    // constructor -> create a default article\n    function petShop() {\n        sellArticle(\"Default article\", \"This an article set by default\", 1000000000000000000);\n    }\n    */\n\n    //events\n    event sellArticleEvent(\n\n      //variables of mapping and Structure\n      uint indexed _id,\n\n      //lets add indexed (like an índice) which means that we are going\n      //to watch only events specific to them\n      address indexed _seller,\n\n      string _name,\n      uint256 _price\n    );\n\n    //event to notify when the purchase has happened\n    event buyArticleEvent (\n      //lets add indexed (like an índice) which means that we are going\n      //to watch only events specific to them\n\n      //variables of mapping and Structure\n      uint indexed _id,\n\n      address indexed _seller,\n      address indexed _buyer,\n\n      string _name,\n      uint256 _price\n    );\n\n    // sell an article. This will change the state of the contract so it whas a cost.\n    function sellArticle(string _name, string _description, uint256 _price) public {\n\n      /*\n      These variables are going to be replaced by\n      Structure and mapping.\n\n        seller = msg.sender;\n        name = _name;\n        description = _description;\n        price = _price;\n      */\n\n        //increment the counter variables of articles mapping\n        articleCounter++;\n\n        //store the article into the mapping.\n        articles[articleCounter] = Article (\n        \tarticleCounter,\n        \tmsg.sender,\n        \t0x0,\n        \t_name,\n        \t_description,\n        \t_price\n        );\n\n        sellArticleEvent(articleCounter, msg.sender, _name, _price);\n\n        //before mapping\n        //sellArticleEvent(articleCounter, msg.sender, name, price);\n    }\n\n    //with mapping the getArticle function is not require due to\n    //mapping cause it is going to generate the get method of the\n    //article automatically. But we need the get function of the\n    //get number of articles which is different of the get articles.\n    //and get all article IDs available for sale\n\n    //fetch the number of mapping articles in the contract\n    function getNumberOfArticles() public constant returns (uint){\n    \treturn articleCounter;\n    }\n\n\n    // fetch and returns all article IDs available for sale\n    function getArticlesForSale() public constant returns (uint[]) {\n      // we check whether there is at least one article\n      require(articleCounter > 0);\n\n      // prepare intermediary array\n      //this will contain identifiers of the articles\n      //here is just a declaration of the array and\n      //we are telling it that the max size is the articleCounter variable.\n      uint[] memory articleIds = new uint[](articleCounter);\n\n      //this will help us later to have the right size of the sale articles.\n      uint numberOfArticlesForSale = 0;\n\n      // iterate over articles\n      for (uint i = 1; i <= articleCounter; i++) {\n        // keep only the ID of articles not sold yet\n        if (articles[i].buyer == 0x0) {\n          articleIds[numberOfArticlesForSale] = articles[i].id;\n          numberOfArticlesForSale++;\n        }\n      }\n\n      // copy the articleIds array into the smaller forSale array\n      uint[] memory forSale = new uint[](numberOfArticlesForSale);\n      for (uint j = 0; j < numberOfArticlesForSale; j++) {\n        forSale[j] = articleIds[j];\n      }\n      return (forSale);\n    }\n\n\n    /*\n    //without the mapping and structure.\n\n    // get the article. Calling this function will be free.\n    function getArticle() public constant returns (\n        address _seller,\n        address _buyer,\n        string _name,\n        string _description,\n        uint256 _price) {\n        return(seller, buyer, name, description, price);\n    }\n\n    */\n\n    // buy an article\n    //lets put a payable function which means that\n    //it may recieve value in the form of ether from its caller\n    //if you dont declare variables as payable, you cannot send value\n    //to it\n\n    //with mapping and Structure\n    function buyArticle(uint _id) payable public {\n\n    //without mapping and structure\n    //function buyArticle() payable public {\n\n      // in every require function if doesnt comply,\n      // it interrupt the execution of the function and refund\n      // to the sender.\n\n      // there are several ways to interrupt a contract function,\n      // and those are (throw, assert, require, revert) all\n      // do the same, whatever value was sent with the\n      // transaction is refunded to the caller, all changes are\n      // automatically reverted, when a function execution is\n      // interrupted no more gas after this point will be spent,\n      // all the gas spent by the message sender up to the point\n      // when the function is interrupted is not refunded to the\n      // message sender. The basically rollback a transaction.\n\n      // any smart contract has its own balance just like\n      // any other account. There are two types of accounts\n      // 1 external accounts which have a keeper and can be used\n      // by a human users.\n      // 2 contract accounts which are linked to deploy contracts\n      // when you attach money to a transaction calling a payable\n      // function on a contract, you are transferring cryptocurrency\n      // from the  balance of your account to the balance of the\n      // contract and then any code of the contract, can spend value\n      // from its balance by sending or transferring it to another\n      // account or it can keep it for later.\n\n      //check if there is in the mapping at least one article\n      require(articleCounter>0);\n\n      //we check that the _id article counter of mapping exists\n      require(_id>0 && _id<=articleCounter);\n\n      //we retrieve the article from the mapping.\n      //this is goinf to store the article into the contract state.\n      Article storage article = articles[_id];\n\n      // we check that the article was not already sold\n\n      require(article.buyer == 0x0);\n\n      //before the mapping\n      //require(buyer == 0x0);\n\n      //we don't allow the seller to buy its own article\n\n      require(article.seller != msg.sender);\n\n      //before the mapping\n      //require(msg.sender != seller);\n\n      //we check whether the value sent corresponds to the article price\n\n      require(article.price == msg.value);\n\n      //before the mapping\n      //require(msg.value == price);\n\n\n      // if everything is ok\n      // keep buyer's information (sender as the buyer)\n\n      article.buyer = msg.sender;\n\n      //before the mapping\n      //buyer = msg.sender;\n\n      // the buyer can buy the article\n      //we send money to the seller\n      //this value comes from the value of the contract,\n      //thanks to the payable function\n\n      article.seller.transfer(msg.value);\n\n      //before the mapping\n      //seller.transfer(msg.value);\n\n      // trigger the event\n\n      buyArticleEvent(_id, article.seller, article.buyer, article.name, article.price);\n\n      //before the mapping\n      //buyArticleEvent(seller, buyer, name, price);\n    }\n\n}\n",
  "sourcePath": "/root/ChainSkills/Training/pet-shop/contracts/petShop.sol",
  "compiler": {
    "name": "solc",
    "version": "0.4.18+commit.9cf6e910.Emscripten.clang"
  },
  "schemaVersion": "1.0.1",
  "updatedAt": "2018-01-29T06:46:47.374Z"
}